:020000040800F2
:1000000000000824E17F00084977000853770008C2
:10001000597700085F770008657700080000000046
:100020000000000000000000000000006B770008E6
:1000300079770008000000008777000895770008AE
:1000400031800008318000083180000831800008CC
:1000500031800008318000083180000831800008BC
:1000600031800008318000083180000831800008AC
:10007000318000083180000831800008318000089C
:10008000318000083180000831800008318000088C
:10009000318000083180000831800008318000087C
:1000A000318000083180000831800008318000086C
:1000B000318000083180000831800008318000085C
:1000C000318000083180000831800008318000084C
:1000D0003180000831800008A177000831800008D5
:1000E000B57700083180000800000000318000086A
:1000F000318000083180000831800008318000081C
:10010000318000083180000831800008318000080B
:100110003180000831800008C57700083180000870
:1001200031800008318000083180000831800008EB
:1001300031800008318000083180000831800008DB
:1001400000000000000000000000000000000000AF
:1001500031800008318000083180000831800008BB
:1001600031800008318000083180000831800008AB
:100170003180000831800008318000080000000054
:10018000318000083180000831800008318000088B
:10019000318000083180000831800008318000087B
:1001A000318000083180000831800008318000086B
:1001B000318000083180000831800008318000085B
:1001C000318000083180000831800008318000084B
:1001D000318000083180000831800008318000083B
:1001E000318000083180000831800008318000082B
:1001F000318000083180000831800008318000081B
:10020000318000083180000831800008318000080A
:1002100031800008318000083180000831800008FA
:1002200031800008318000083180000800000000A3
:100230003180000831800008000000003180000893
:1002400031800008318000083180000831800008CA
:1002500031800008318000083180000831800008BA
:1002600031800008318000083180000831800008AA
:100270003180000831800008318000080000000053
:100280003180000831800008318000080000000043
:080290000000000031800008AD
:1002980010B5054C237833B9044B13B10448AFF3B8
:1002A80000800123237010BD880000240000000096
:1002B800E009010808B5034B1BB103490348AFF334
:1002C800008008BD000000008C000024E00901083F
:1002D8007BB972B90029BEBF00204FF0004106E08B
:1002E80008BF00281CBF6FF000414FF0FF3000F03E
:1002F800BBB9ADF1080C6DE904CE002909DB002B70
:100308001ADB00F04DF8DDF804E0DDE9022304B063
:100318007047404261EB4101002B1BDB00F040F8C5
:10032800DDF804E0DDE9022304B0404261EB41015D
:10033800524263EB43037047524263EB430300F0BE
:100348002FF8DDF804E0DDE9022304B0404261EB58
:1003580041017047524263EB430300F021F8DDF896
:1003680004E0DDE9022304B0524263EB4303704723
:1003780053B94AB9002908BF00281CBF4FF0FF3104
:100388004FF0FF3000F070B9ADF1080C6DE904CE04
:1003980000F006F8DDF804E0DDE9022304B0704758
:1003A8002DE9F047089E0D4604460F46002B4AD11A
:1003B8008A42944665D9B2FA82F343B102FA03FC41
:1003C800C3F120029F4020FA02F217439C404FEAF3
:1003D8001C4E1FFA8CF5B7FBFEF1220C0EFB1177B1
:1003E80042EA074201FB05F090420AD91CEB0202DF
:1003F80001F1FF3780F01C81904240F219810239E7
:100408006244121AA4B2B2FBFEF00EFB102244EAB8
:10041800024400FB05F5A5420AD91CEB040400F1CF
:10042800FF3280F00781A54240F20481644402381B
:1004380040EA0140641B00211EB1DC400023C6E9EC
:100448000043BDE8F0878B4208D9002E00F0ED800C
:100458000021C6E900050846BDE8F087B3FA83F134
:10046800002949D1AB4202D3824200F2F880841AB3
:1004780065EB030201201746002EE2D0C6E90047CB
:10048800DFE702B9FFDEB2FA82F3002B40F090807A
:100498008A1A4FEA1C471FFA8CFE0121B2FBF7F5B6
:1004A80007FB1520220C42EA00420EFB05F09042A1
:1004B80008D91CEB020205F1FF3802D2904200F283
:1004C800CB804546121AA4B2B2FBF7F007FB102204
:1004D80044EA02440EFB00FEA64508D91CEB0404BE
:1004E80000F1FF3202D2A64500F2BB801046A4EB11
:1004F8000E0440EA05409FE7C1F120078B4022FA2D
:1005080007FC4CEA030C05FA01F420FA07F3FD4056
:100518004FEA1C492343B5FBF9F81FFA8CFE09FB87
:1005280018551C0C44EA054408FB0EF5A54202FACE
:1005380001F200FA01F00BD91CEB040408F1FF3AB0
:1005480080F08880A54240F28580A8F102086444C2
:10055800641B9DB2B4FBF9F309FB134445EA044458
:1005680003FB0EFEA64508D91CEB040403F1FF3576
:100578006CD2A6456AD9023B644443EA0843A3FB0C
:100588000295A4EB0E04AC42C846AE4656D353D0EF
:1005980056B1B0EB080264EB0E0404FA07F7CA4040
:1005A800CC401743C6E9007418460021BDE8F0871F
:1005B800C3F1200102FA03FC20FA01F225FA01F145
:1005C8009D402A434FEA1C471FFA8CFEB1FBF7F007
:1005D80007FB1015110C41EA054100FB0EF58D4291
:1005E80004FA03F408D91CEB010100F1FF382FD2FB
:1005F8008D422DD902386144491B92B2B1FBF7F5FF
:1006080007FB151142EA014205FB0EF1914208D998
:100618001CEB020205F1FF3816D2914214D9023DB3
:100628006244521A45EA004138E73146304608E745
:100638003946E6E61046FBE64845A9D2B9EB02087A
:1006480065EB0C0E013BA3E74546EAE72B4694E72A
:100658004046D1E7D0467BE7023D624432E7084690
:100668000AE76444023842E7704700BF80B582B0A9
:1006780000AF78600B46FB7001224FF480510C48A4
:1006880008F0D2FD012210210A4808F0CDFDFB78C0
:100698009AB24FF47A73796807480DF04DFB00223F
:1006A8001021044808F0C0FD00BF0837BD4680BDD2
:1006B80000080258000C0258E805002480B400AF76
:1006C800274B1B78002B45D1264B1B787E2B06D158
:1006D800254B01221A70254B00221A7009E0214B84
:1006E8001B780D2B05D1214B01221A701E4B0022BD
:1006F8001A701D4B1B78012B0BD11D4B1B785A1CF4
:10070800D1B21B4A11701A46164B1978194B9954D5
:1007180013E0164B1B78012B0FD1154B1B781A468B
:10072800104B1978134B99540F4B00221A700F4B2A
:1007380000221A700A4B01221A700D4B1B78FF2BEE
:1007480008D10B4B00221A70074B00221A70074B76
:1007580000221A7000BFBD465DF8047B704700BFD9
:100768007A080024770800247808002479080024EF
:100778007B0800247807002480B485B000AF0346C6
:10078800FB80FB8803F00F039AB2FB881B099BB21E
:1007980003F00F039BB213449AB2FB881B0A9BB267
:1007A80003F00F039BB21344FB81FB8903F00F0393
:1007B800FB81FB895B42FB81FB8903F00F039BB242
:1007C80018461437BD465DF8047B704780B485B081
:1007D80000AF78600B467B800023FB6001237B81A0
:1007E8000AE07B897A6813441B781A46FB6813442D
:1007F800FB607B8901337B817A897B880C339A4241
:10080800EFDDFB685B42FB60FB683B813B89184678
:100818001437BD465DF8047B704780B485B000AFDF
:100828000346FB710023FB730023BB730023BB81CA
:10083800FB791B09FB73FB7B092B03D8FB7B30334C
:10084800FB7302E0FB7B3733FB73FB7903F00F0389
:10085800BB73BB7B092B03D8BB7B3033BB7302E074
:10086800BB7B3733BB73FB7B1B021AB2BB7B1BB250
:1008780013431BB2BB81BB8918461437BD465DF8CC
:10088800047B704780B485B000AF0346FB7100233A
:10089800FB73FB792F2B06D9FB793F2B03D8FB7908
:1008A800303BFB730BE0FB79402B06D9FB79462BD9
:1008B80003D8FB79373BFB7301E00023FB73FB7B19
:1008C80018461437BD465DF8047B704780B586B07E
:1008D80000AF0023FB821223FB80FB8A5A1CFA829A
:1008E8001A46804B26219954FB8A5A1CFA821A46CA
:1008F8007C4B00219954FB8A5A1CFA821A46794B80
:1009080046219954FB8A5A1CFA821A46754B0021D3
:1009180099547620FFF730FF0346BB80BB88DAB2D4
:10092800FB8A591CF98219461301DAB26D4B5A54E5
:10093800FB8A5A1CFA821A466A4B76219954FB8A1A
:100948005A1CFA821A46674B00219954FB8A5A1C92
:10095800FA821A46644B1978624B9954FB8A5A1CDE
:10096800FA821A46FB88D9B25E4B995400233B6140
:100978002AE03B69DBB2184602F0EAFB03461A4656
:100988005A4BA3FB0223DB089BB21B0A99B2FB8AD2
:100998005A1CFA821A46C9B2524B99543B69DBB2C7
:1009A800184602F0D5FB03461A46504BA3FB022318
:1009B800DB0899B2FB8A5A1CFA821A46C9B2494B1B
:1009C80099543B6901333B61FB883A699A42D0DB11
:1009D800FB8A5A1CFA821A46424B04219954082071
:1009E80002F0EEFB03469BB203F6AB239AB2404BF0
:1009F8001A803F4B1B881B0A99B2FB8A5A1CFA8241
:100A08001A46C9B2374B9954394B1988FB8A5A1C74
:100A1800FA821A46C9B2334B9954092002F0D0FB26
:100A280003469BB203F6AB239AB2314B1A80304B84
:100A38001B881B0A99B2FB8A5A1CFA821A46C9B249
:100A4800284B99542A4B1988FB8A5A1CFA821A4651
:100A5800C9B2244B9954FB8A5A1CFA821A46214B74
:100A680000219954FB8A5A1CFA821A461D4B1921F7
:100A78009954FB8A5A1CFA821A461A4B0021995437
:100A8800FB8A5A1CFA821A46164B19219954194B9B
:100A9800B3F90030184A82FB03129210DB17D31AFD
:100AA8001BB21B1219B2FB8A5A1CFA821A46C9B227
:100AB8000C4B99540F4BB3F900300F4A82FB0312C9
:100AC8009210DB17D31A19B2FB8A5A1CFA821A46FB
:100AD800C9B2044B9954094B00221A600023FB60E9
:100AE8001DE000BF2C01002436070024CDCCCCCC5F
:100AF800340200244C07002467666666300200242E
:100B0800FB68DBB2184602F023FB03461A46894B02
:100B18001B681344874A1360FB680133FB60FB685A
:100B2800112BEDDD834B1B68834AA2FB03235B0972
:100B3800190AFB8A5A1CFA821A46C9B27F4B995481
:100B48007C4B1B687C4AA2FB03235909FB8A5A1C6D
:100B5800FA821A46C9B2794B9954794B1B88794A5B
:100B6800A2FB0323DB089BB21B0A99B2FB8A5A1C1F
:100B7800FA821A46C9B2714B9954714B1B88714A53
:100B8800A2FB0323DB0899B2FB8A5A1CFA821A4695
:100B9800C9B26A4B9954FB8A5A1CFA821A46674BA7
:100BA80000219954684B1B88664AA2FB0323DB0883
:100BB8009BB21B0A99B2FB8A5A1CFA821A46C9B21E
:100BC8005E4B9954604B1B885E4AA2FB0323DB08EB
:100BD80099B2FB8A5A1CFA821A46C9B2574B9954E1
:100BE8005A4B1B881B0A99B2FB8A5A1CFA821A466E
:100BF800C9B2524B9954554B1988FB8A5A1CFA8230
:100C08001A46C9B24D4B9954FB8A5A1CFA821A46A5
:100C18004A4B00219954FB8A484A0021D1540023A9
:100C2800FB82FB8A5A1CFA821A46494B7E21995448
:100C38000023BB6021E0414ABB6813441B78184677
:100C4800FFF7EBFD03461A46424B1A80414B1B88BF
:100C58001B0A99B2FB8A5A1CFA821A46C9B23C4B43
:100C680099543C4B1988FB8A5A1CFA821A46C9B215
:100C7800374B9954BB680133BB60BB68422BDADD44
:100C8800FB8A5A1CFA821A46314B0D2199540023CB
:100C98007B8076212E48FFF799FD03467B807B8871
:100CA8001B0A9BB2DBB21846FFF7B7FD03461A468C
:100CB800284B1A80274B1B881B0A9BB2DAB2244B9D
:100CC80083F88320234B1B88DAB2214B83F88420D6
:100CD8007B88DBB21846FFF7A0FD03461A461D4B7A
:100CE8001A801C4B1B881B0A9BB2DAB2184B83F87C
:100CF8008520184B1B88DAB2154B83F88620012211
:100D08004FF48051144808F08FFA0122102113483B
:100D180008F08AFA4FF47A7388220D4910480DF0CA
:100D28000BF8002210210D4808F07EFA00BF183792
:100D3800BD4680BD300200241F85EB512C010024E4
:100D480038070024CDCCCCCC220000242400002479
:100D5800A40000242C02002400080258000C0258A9
:100D6800E805002480B586B000AF0023FB82FB8A2B
:100D78005A1CFA821A46794B26219954FB8A5A1C26
:100D8800FA821A46754B00219954FB8A5A1CFA823A
:100D98001A46724B46219954FB8A5A1CFA821A4603
:100DA8006E4B002199544A20FFF7E6FC0346FB806E
:100DB800FB88DAB2FB8A591CF98219461301DAB2A8
:100DC800664B5A54FB8A5A1CFA821A46634B4A21CC
:100DD8009954FB8A5A1CFA821A46604B002199548E
:100DE800FB8A5A1CFA821A465D4B19785B4B995458
:100DF8005C4B1988FB8A5A1CFA821A46C9B2574BAF
:100E0800995400233B610CE0FB8A5A1CFA8219466C
:100E1800554A3B6913441A78504B5A543B6901337D
:100E28003B61504B1B881A463B699342ECDB4F4BA6
:100E38001988FB8A5A1CFA821A46C9B2474B995438
:100E48000023FB600CE0FB8A5A1CFA821946484AC8
:100E5800FB6813441A78414B5A54FB680133FB6012
:100E6800424B1B881A46FB689342ECDBFB8A5A1CF0
:100E7800FA821A463F4B1978384B9954FB8A5A1C08
:100E8800FA821A463C4B1978344B9954FB8A5A1CFF
:100E9800FA821A46314B07219954FB8A5A1CFA8266
:100EA8001A462E4B00219954FB8A5A1CFA821A467C
:100EB8002A4B00219954FB8A5A1CFA821A46274B5E
:100EC80000219954FB8A5A1CFA821A46234B0021A6
:100ED8009954FB8A5A1CFA821A46204B00219954CD
:100EE800FB8A5A1CFA821A461C4B00219954FB8A29
:100EF8005A1CFA821A46194B002199541F4BB3F910
:100F08000030002B07DAFB8A5A1CFA821A46134B68
:100F1800012199540BE0194BB3F90030002B06DD81
:100F2800FB8A5A1CFA821A460C4B02219954FB8AF6
:100F38005A1CFA821A46094B00219954FB8A074A1F
:100F48000021D1540023FB82FB8A5A1CFA821A46DC
:100F58000B4B7E2199540023BB6035E02C01002403
:100F680036070024240C010818070024260C010861
:100F78002C07002430070024310700244C070024E4
:100F8800A40000243F4ABB6813441B781846FFF7A7
:100F980044FC03461A463C4B1A803B4B1B881B0AF1
:100FA80099B2FB8A5A1CFA821A46C9B2374B99542D
:100FB800354B1988FB8A5A1CFA821A46C9B2334B38
:100FC8009954BB680133BB60BB682C2BDADDFB8A04
:100FD8005A1CFA821A462D4B0D2199540023BB80C6
:100FE8004A212A48FFF7F2FB0346BB80BB881B0A4D
:100FF8009BB2DBB21846FFF710FC03461A46224B99
:101008001A80214B1B881B0A9BB2DAB21F4B83F84C
:1010180057201D4B1B88DAB21C4B83F85820BB881D
:10102800DBB21846FFF7F9FB03461A46164B1A803F
:10103800154B1B881B0A9BB2DAB2144B83F8592054
:10104800114B1B88DAB2114B83F85A2001224FF456
:1010580080510F4808F0E8F8012210210D4808F0E7
:10106800E3F84FF47A735C2208490B480CF064FEED
:1010780000221021074808F0D7F800BF1837BD46EE
:1010880080BD00BF2C0100242C020024A4000024F1
:1010980000080258000C0258E805002480B584B006
:1010A80000AF0023FB810023FB80FB895A1CFA81D7
:1010B8001A46A74B26219954FB895A1CFA811A46CD
:1010C800A34B00219954FB895A1CFA811A46A04B5C
:1010D80046219954FB895A1CFA811A469C4B0021D7
:1010E80099545020FFF748FB0346BB80BB88DAB20F
:1010F800FB89591CF98119461301DAB2944B5A54E9
:10110800FB895A1CFA811A46914B50219954FB8845
:101118005A1CFA801A468F4B53F82210FB895A1C26
:10112800FA811A46C9B28A4B9954FB88894A52F8FF
:1011380023309BB21B0A99B2FB895A1CFA811A46C2
:10114800C9B2834B9954FB885A1CFA801A46814BC2
:1011580053F82210FB895A1CFA811A46C9B27C4BF3
:101168009954FB887B4A52F823309BB21B0A99B2E8
:10117800FB895A1CFA811A46C9B2754B9954FB88E7
:101188005A1CFA801A46734B53F82210FB895A1CD2
:10119800FA811A46C9B26E4B9954FB886D4A52F8C7
:1011A80023309BB21B0A99B2FB895A1CFA811A4652
:1011B800C9B2674B9954FB885A1CFA801A46654B8A
:1011C80053F82210FB895A1CFA811A46C9B2604B9F
:1011D8009954FB885F4A52F823309BB21B0A99B294
:1011E800FB895A1CFA811A46C9B2594B9954FB8893
:1011F8005A1CFA801A46574B53F82210FB895A1C7E
:10120800FA811A46C9B2524B9954FB88514A52F88E
:1012180023309BB21B0A99B2FB895A1CFA811A46E1
:10122800C9B24B4B9954FB885A1CFA801A46494B51
:1012380053F82210FB895A1CFA811A46C9B2444B4A
:101248009954FB88434A52F823309BB21B0A99B23F
:10125800FB895A1CFA811A46C9B23D4B9954FB883E
:101268005A1CFA801A463B4B53F82210FB895A1C29
:10127800FA811A46C9B2364B9954FB88354A52F856
:1012880023309BB21B0A99B2FB895A1CFA811A4671
:10129800C9B22F4B9954FB885A1CFA801A462D4B19
:1012A80053F82210FB895A1CFA811A46C9B2284BF6
:1012B8009954FB895A1CFA811A46254B0C219954DA
:1012C800FB880133FB80FB88224A52F823309BB20B
:1012D8001B0A99B2FB895A1CFA811A46C9B21C4BDF
:1012E8009954FB885A1CFA801A461A4B53F8221054
:1012F800FB895A1CFA811A46C9B2154B9954FB88C6
:10130800144A52F823309BB21B0A99B2FB895A1C23
:10131800FA811A46C9B20E4B9954FB885A1CFA80B6
:101328001A460C4B53F82210FB895A1CFA811A46AC
:10133800C9B2074B9954FB88064A52F823309BB22E
:101348001B0A99B2FB895A1CFA811A46C9B203E0F2
:101358002C01002498090024894B9954FB885A1CB5
:10136800FA801A46874B53F82210FB895A1CFA81D7
:101378001A46C9B2824B9954FB88824A52F82330E4
:101388009BB21B0A99B2FB895A1CFA811A46C9B248
:101398007B4B9954FB885A1CFA801A46794B53F8B0
:1013A8002210FB895A1CFA811A46C9B2744B995407
:1013B800FB88744A52F823309BB21B0A99B2FB8906
:1013C8005A1CFA811A46C9B26D4B9954FB885A1CAB
:1013D800FA801A466B4B53F82210FB895A1CFA8183
:1013E8001A46C9B2664B9954FB88664A52F82330AC
:1013F8009BB21B0A99B2FB895A1CFA811A46C9B2D8
:101408005F4B9954FB885A1CFA801A465D4B53F877
:101418002210FB895A1CFA811A46C9B2584B9954B2
:10142800FB88584A52F823309BB21B0A99B2FB89B1
:101438005A1CFA811A46C9B2514B9954FB885A1C56
:10144800FA801A464F4B53F82210FB895A1CFA812E
:101458001A46C9B24A4B9954FB884A4A52F8233073
:101468009BB21B0A99B2FB895A1CFA811A46C9B267
:10147800434B9954FB885A1CFA801A46414B53F83F
:101488002210FB895A1CFA811A46C9B23C4B99545E
:10149800FB883C4A52F823309BB21B0A99B2FB895D
:1014A8005A1CFA811A46C9B2354B9954FB885A1C02
:1014B800FA801A46334B53F82210FB895A1CFA81DA
:1014C8001A46C9B22E4B99542E4BD3F8A0309BB272
:1014D8001B0A99B2FB895A1CFA811A46C9B2284BD1
:1014E8009954284BD3F8A010FB895A1CFA811A4644
:1014F800C9B2234B9954234BD3F8A8309BB21B0A8B
:1015080099B2FB895A1CFA811A46C9B21C4B9954E4
:101518001C4BD3F8A810FB895A1CFA811A46C9B289
:10152800174B9954174BD3F8AC309BB21B0A99B29E
:10153800FB895A1CFA811A46C9B2114B9954114BAE
:10154800D3F8AC10FB895A1CFA811A46C9B20C4B65
:101558009954FB895A1CFA811A46094B002199545F
:10156800FB89074A0021D1540023FB81FB895A1CBF
:10157800FA811A46044B7E2199540023BB6027E068
:101588002C01002498090024A40000243F4ABB68C9
:1015980013441B781846FFF740F903461A463C4B9C
:1015A8001A803B4B1B881B0A99B2FB895A1CFA818B
:1015B8001A46C9B2374B9954354B1988FB895A1CBE
:1015C800FA811A46C9B2334B9954BB680133BB60E0
:1015D800BB682F2BDADDFB895A1CFA811A462D4B82
:1015E8000D21995400237B8050212A48FFF7EEF8FB
:1015F80003467B807B881B0A9BB2DBB21846FFF749
:101608000CF903461A46224B1A80214B1B881B0AE9
:101618009BB2DAB21F4B83F85D201D4B1B88DAB2F0
:101628001C4B83F85E207B88DBB21846FFF7F5F881
:1016380003461A46164B1A80154B1B881B0A9BB289
:10164800DAB2144B83F85F20114B1B88DAB2114BC6
:1016580083F8602001224FF480510F4807F0E4FD21
:10166800012210210D4807F0DFFD4FF47A73622242
:1016780008490B480CF060FB00221021074807F0CE
:10168800D3FD00BF1037BD4680BD00BF2C0100242C
:101698002C020024A400002400080258000C025860
:1016A800E8050024B0B58CB000AFC64B07F11804AC
:1016B8001D460FCD0FC42B682380C34B3C1D1D4610
:1016C8000FCD0FC42B682380C04BDB7B1846FFF778
:1016D800D9F803461B01DCB2BC4B1B7C1846FFF74C
:1016E800D1F80346234487F82F30B84B5B7C184663
:1016F800FFF7C8F803469BB21B039CB2B34B9B7C15
:101708001846FFF7BFF803469BB21B029BB223445F
:101718009CB2AE4BDB7C1846FFF7B4F803469BB28D
:101728001B019BB223449CB2A84B1B7D1846FFF7B4
:10173800A9F803469BB22344BB8597F82F30013B99
:10174800422B00F25D8101A252F823F061180008D3
:1017580075180008891800089D180008B1180008B5
:10176800C5180008D9180008ED180008091A00085B
:101778000119000815190008291900083D19000861
:101788005119000865190008791900088D19000811
:10179800A1190008091A0008091A0008091A0008FE
:1017A800091A0008091A0008091A0008091A000885
:1017B800091A0008091A0008091A0008091A000875
:1017C800091A0008091A0008091A0008091A000865
:1017D800091A0008091A0008091A0008091A000855
:1017E800091A0008091A0008091A0008B51900089A
:1017F800091A0008DD190008F3190008091A000879
:10180800091A0008091A0008091A0008091A000824
:10181800091A0008091A0008091A0008091A000814
:10182800091A0008091A0008091A0008091A000804
:10183800091A0008091A0008091A0008091A0008F4
:10184800091A0008091A0008091A0008091A0008E4
:10185800091A0008151A0008BB8D5D4A136007F1C4
:10186800180312211846FEF701FFD0E0BB8D584A35
:10187800536007F1180312211846FEF7F7FEC6E079
:10188800BB8D534A936007F1180312211846FEF7DF
:10189800EDFEBCE0BB8D4E4AD36007F11803122160
:1018A8001846FEF7E3FEB2E0BB8D494A136107F123
:1018B800180312211846FEF7D9FEA8E0BB8D444A4A
:1018C800536107F1180312211846FEF7CFFE9EE078
:1018D800BB8D3F4A936107F1180312211846FEF7A2
:1018E800C5FE94E0BB8D3A4AD36107F11803122173
:1018F8001846FEF7BBFE8AE0BB8D354A536207F1F6
:10190800180312211846FEF7B1FE80E0BB8D304A5D
:10191800936207F1180312211846FEF7A7FE76E036
:10192800BB8D2B4AD36207F1180312211846FEF724
:101938009DFE6CE0BB8D264A136307F11803122144
:101948001846FEF793FE62E0BB8D214A536307F108
:10195800180312211846FEF789FE58E0BB8D1C4A71
:10196800936307F1180312211846FEF77FFE4EE035
:10197800BB8D174AD36307F1180312211846FEF7E7
:1019880075FE44E0BB8D124A136407F11803122157
:101998001846FEF76BFE3AE0BB8D0D4A536407F11B
:1019A800180312211846FEF761FE30E0BB8D084A85
:1019B800C2F8A03007F1180312211846FEF756FEA8
:1019C80025E000BFF80901080C0A0108780700247F
:1019D80098090024BB8D104AC2F8A83007F11803F3
:1019E80012211846FEF742FE11E0BB8D0A4AC2F8E2
:1019F800AC3007F1180312211846FEF737FE06E04F
:101A08003B1D12211846FEF731FE00E000BF00BF63
:101A18003037BD46B0BD00BF9809002480B582B0FC
:101A280000AF0023FB714FF40041174807F0E4FBB7
:101A38000346002B02D1FB790133FB714FF480611F
:101A4800124807F0D9FB0346002B02D1FB79023379
:101A5800FB714FF400610D4807F0CEFB0346002BE5
:101A680002D1FB790433FB714FF48071084807F009
:101A7800C3FB0346002B02D1FB790833FB71FB79CA
:101A880018460837BD4680BD0010025800040258A9
:101A9800000C025880B586B000AF78600023FB8246
:101AA8007B689BB2184600F083FBFB8A5A1CFA82BB
:101AB8001A466B4B26219954FB8A5A1CFA821A46FD
:101AC800674B00219954FB8A5A1CFA821A46644BC8
:101AD80046219954FB8A5A1CFA821A46604B002107
:101AE80099548220FEF748FE03467B817B89DAB24F
:101AF800FB8A591CF98219461301DAB2584B5A5419
:101B0800FB8A5A1CFA821A46554B822199540023A3
:101B18003B610CE0FB8A5A1CFA821946514A3B6920
:101B280013441A784E4B5A543B6901333B613B6965
:101B3800402BEFDDFB8A5A1CFA821A46484B0021DB
:101B48009954FB8A464A0021D1540023FB82FB8A20
:101B58005A1CFA821A46444B7E2199540023FB6092
:101B680021E03F4AFB6813441B781846FEF755FEF0
:101B780003461A463D4B1A803C4B1B881B0A99B2F8
:101B8800FB8A5A1CFA821A46C9B2374B9954374B0A
:101B98001988FB8A5A1CFA821A46C9B2324B9954E0
:101BA800FB680133FB60FB68482BDADDFB8A5A1CB3
:101BB800FA821A462C4B0D21995400233B8182212D
:101BC8002948FEF703FE03463B813B891B0A9BB26B
:101BD800DBB21846FEF721FE03461A46234B1A804D
:101BE800224B1B881B0A9BB2DAB21F4B83F88F204B
:101BF8001E4B1B88DAB21C4B83F890203B89DBB262
:101C08001846FEF70AFE03461A46184B1A80174B69
:101C18001B881B0A9BB2DAB2134B83F89120134B33
:101C28001B88DAB2104B83F8922001224FF48051BE
:101C38000F4807F0F9FA012210210E4807F0F4FACC
:101C48004FF47A73942208490B480CF075F8002277
:101C58001021084807F0E8FA00BF1837BD4680BDD4
:101C68002C010024D4060024A40000242C02002403
:101C780000080258000C0258E805002480B584B01A
:101C880000AF0023FB60B4E0FB68DBB2184601F04C
:101C98005FFA03461A46A74BA3FB0223DB089BB255
:101CA8001A46A54B9B6A9A420CDDA44B1B7843F05D
:101CB8001003DAB2A14B1A70A14AFB68134401223F
:101CC8001A7022E0FB68DBB2184601F041FA0346BD
:101CD8001A46984BA3FB0223DB089BB21A46964B85
:101CE8005B689A4205DD964AFB68134401221A7024
:101CF8000BE0934AFB6813441B7823F00103D9B225
:101D08008F4AFB6813440A461A70FB68DBB2184610
:101D180001F01EFA03461A46864BA3FB0223DB0892
:101D28009BB21A46844BDB6A9A4206DC834B1B78CB
:101D380023F01003DAB2814B1A70FB68DBB2184645
:101D480001F006FA03461A467A4BA3FB0223DB0886
:101D58009BB21A46784B5B6B9A420CDA774B1B782E
:101D680043F02003DAB2754B1A70754AFB681344C6
:101D780002221A7022E0FB68DBB2184601F0E8F98B
:101D880003461A466B4BA3FB0223DB089BB21A4699
:101D9800694B9B689A4205DA694AFB681344022238
:101DA8001A700BE0664AFB6813441B7823F00203A1
:101DB800D9B2634AFB6813440A461A70FB68DBB25F
:101DC800184601F0C5F903461A465A4BA3FB0223ED
:101DD800DB089BB21A46584B1B6B9A4206DB574BE3
:101DE8001B7823F02003DAB2544B1A70FB680133D6
:101DF800FB60FB680F2B7FF747AF0023BB6039E020
:101E0800BB68DBB2184601F0DBF903464D4A82FB9A
:101E180003129210DB17D31A1BB203F58872464BD4
:101E2800DB689A4205DB484ABB68134401221A70F2
:101E38001DE0BB68DBB2184601F0C2F90346414A0F
:101E480082FB03129210DB17D31A1BB203F2111292
:101E5800394B1B699A4205DA3B4ABB681344022294
:101E68001A7004E0384ABB68134400221A70BB6831
:101E78000133BB60BB68022BC2DD344B00221A6001
:101E880000237B6014E07B68DBB2184601F060F940
:101E980003461A46274BA3FB0223DB089BB21A46CC
:101EA8002A4B1B681344294A13607B6801337B6003
:101EB8007B68112BE7DD204B9B691A46234B1B6877
:101EC8009A4203D2224B01221A700DE01A4BDB69A9
:101ED8001A461E4B1B689A4203D91D4B02221A70E0
:101EE80002E01B4B00221A701A4BB3F90030194656
:101EF800114B5B694FF47A7202FB03F3994203DDDD
:101F0800154B01221A7011E0124BB3F90030194633
:101F1800094B5B6A114A02FB03F3994203DA0E4B41
:101F280002221A7002E00C4B00221A7000BF103710
:101F3800BD4680BDCDCCCCCC980900247C080024BB
:101F480018070024676666662C0700243002002400
:101F5800310700244C0700243007002418FCFFFF39
:101F680080B500AF01220121104807F05DF9012278
:101F780020210E4807F058F9002208210B4807F0E5
:101F880053F900220421094807F04EF90A2006F007
:101F9800DFF800220121054807F046F90022202138
:101FA800024807F041F900BF80BD00BF0010025889
:101FB80080B500AF00220121104807F035F9002252
:101FC80020210E4807F030F9012208210B4807F0BC
:101FD8002BF901220421094807F026F90A2006F006
:101FE800B7F800220821054807F01EF9002204214D
:101FF800024807F019F900BF80BD00BF0010025861
:1020080080B500AF00222021084807F00DF9012211
:102018000421064807F008F90A2006F099F800227A
:102028000421024807F000F900BF80BD00100258E3
:1020380080B500AF00220121084807F0F5F8012219
:102048000821064807F0F0F80A2006F081F8002277
:102058000821024807F0E8F800BF80BD00100258C8
:1020680080B500AF00220421084807F0DDF80122FE
:102078002021064807F0D8F80A2006F069F800225F
:102088002021024807F0D0F800BF80BD0010025898
:1020980080B500AF00220821084807F0C5F80122E2
:1020A8000121064807F0C0F80A2006F051F800227E
:1020B8000121024807F0B8F800BF80BD001002589F
:1020C80080B500AF01224FF40061024807F0ACF878
:1020D80000BF80BD000C025880B500AF00224FF44D
:1020E8000061024807F0A0F800BF80BD000C02584C
:1020F80080B500AF01220421024807F095F800BF1F
:1021080080BD00BF000C025880B500AF002204213A
:10211800024807F089F800BF80BD00BF000C0258D4
:1021280080B500AF01224021024807F07DF800BFCA
:1021380080BD00BF0004025880B500AF00224021D6
:10214800024807F071F800BF80BD00BF00040258C4
:1021580080B500AF01220821024807F065F800BFEA
:1021680080BD00BF000C025880B500AF00220821D6
:10217800024807F059F800BF80BD00BF000C0258A4
:1021880080B500AF01228021024807F04DF800BF5A
:1021980080BD00BF0004025880B500AF0022802136
:1021A800024807F041F800BF80BD00BF0004025894
:1021B80080B582B000AF0346FB80F9884023002237
:1021C800034805F089FE00BF0837BD4680BD00BF43
:1021D800D406002480B582B000AF00237B601AE0EB
:1021E8007B68DBB2184600F0B3FF03461946154A70
:1021F8007B6822F813107B68DBB2184600F0A8FF52
:1022080003461A46104B1B8813449AB20E4B1A8089
:102218007B6801337B600D4B1B881A467B689342B1
:10222800DEDB00F075FA0346094A82FB03125211FD
:10223800DB17D31A1AB2074B1A8000BF0837BD46FE
:1022480080BD00BF540700244A070024240C01085D
:10225800D34D62104C07002480B500AF0022054919
:10226800054809F0BDFF0022044903480AF09CF81C
:1022780000BF80BD7C0600244C0300249006002487
:1022880080B500AF054B1B885A1C91B2034A1180D8
:10229800184600F011F800BF80BD00BF14070024E5
:1022A80080B582B000AF7860786805F033FD00BF74
:1022B8000837BD4680BD000080B586B000AF034634
:1022C800FB80FFF7C9FFFFF785FF0023FB75954BE0
:1022D800DB789BB203F5FA63FB81FB7D5A1CFA7528
:1022E8001A46914B1978914B9954FB7D5A1CFA75F3
:1022F8001A468F4B19788D4B9954FB891B0A99B252
:10230800FB7D5A1CFA751A46C9B2884B9954FB7D55
:102318005A1CFA751A46FB89D9B2844B9954FB7D2D
:102328005A1CFA751A467F4B5978804B9954FB7D95
:102338005A1CFA751A467B4B99787C4B9954FB7D4D
:102348005A1CFA751A467B4B1978784B9954FB7DC1
:102358005A1CFA751A46774B5978744B9954FB7D79
:102368005A1CFA751A46734B9978704B9954FB7D31
:102378005A1CFA751A46704B19786C4B9954FB7DA8
:102388005A1CFA751A46694B03219954FB7D5A1C4D
:10239800FA751A46694B1978644B9954FB7D5A1C97
:1023A800FA751A46664B1978604B9954FB7D5A1C8E
:1023B800FA751A46634B19785C4B9954FB7D5A1C85
:1023C800FA751A46594B192199545F4BB3F90030E5
:1023D8001B1219B2FB7D5A1CFA751A46C9B2534B27
:1023E8009954594BB3F90010FB7D5A1CFA751A46DB
:1023F800C9B24E4B9954554B1B881B0A99B2FB7DA9
:102408005A1CFA751A46C9B2484B99544F4B198849
:10241800FB7D5A1CFA751A46C9B2444B99544C4B69
:102428001B881B0A99B2FB7D5A1CFA751A46C9B259
:102438003E4B9954464B1988FB7D5A1CFA751A462F
:10244800C9B23A4B9954FB7D5A1CFA751A46374B58
:1024580000219954FB7D5A1CFA751A46334B1921F1
:102468009954FB7D5A1CFA751A46304B0021995431
:10247800FB7D5A1CFA751A462C4B19219954354B79
:10248800B3F900301B1219B2FB7D5A1CFA751A46B3
:10249800C9B2264B99542F4BB3F90010FB7D5A1C37
:1024A800FA751A46C9B2214B9954FB7D5A1CFA7524
:1024B8001A461E4B00219954FB7D5A1CFA751A4680
:1024C8001A4B1921995400233B611AE0224A3B69AF
:1024D80032F813301B0A99B2FB7D5A1CFA751A465A
:1024E800C9B2124B99541C4A3B6932F81310FB7D50
:1024F8005A1CFA751A46C9B20C4B99543B690133F8
:102508003B61164B1B881A463B699342DEDBF98810
:1025180040230022054805F059FC00BF1837BD4686
:1025280080BD00BF900600243607002494060024CE
:10253800360200247C0600243207002433070024D6
:1025480034070024350700244C0700244A070024D8
:10255800380700245007002454070024240C0108DD
:1025680080B586B002AF01224FF40071664806F0CC
:102578005BFE012005F0ECFD00233B7200237B721B
:102588001023BB7200224FF400715F4806F04CFE26
:1025980007F108014FF0FF3303225C480AF08EF977
:1025A80001224FF40071584806F03EFE0423FB73E5
:1025B8000723BB7307237B7307233B730F23FB722C
:1025C80004233B723B7BDB005AB297F90D3013436F
:1025D8005AB2FB7A9B015BB213435BB2DBB27B72EC
:1025E800BB7BDB005AB297F90F3013435AB27B7B9F
:1025F8009B015BB213435BB2DBB2BB7200224FF4A8
:102608000071414806F010FE07F108014FF0FF3352
:1026180003223E480AF052F901224FF400713A4869
:1026280006F002FE2C233B7200237B720023BB7250
:1026380000224FF40071344806F0F6FD07F1080156
:102648004FF0FF33032231480AF038F901224FF4E2
:1026580000712D4806F0E8FD01233B7200237B72D0
:102668000023BB7200224FF40071274806F0DCFDFE
:102678003A1D07F108014FF0FF3300930323234865
:102688000AF0A8FC01224FF400711F4806F0CCFDA7
:1026980005233B7200237B720023BB7200224FF498
:1026A8000071194806F0C0FD3A1D07F108014FF006
:1026B800FF330093032315480AF08CFC01224FF4E2
:1026C8000071114806F0B0FD2D233B7200237B7288
:1026D8000023BB7200224FF400710B4806F0A4FDE2
:1026E8003A1D07F108014FF0FF3300930323074811
:1026F8000AF070FC01224FF40071034806F094FDC3
:1027080000BF1037BD4680BD000C0258700300247E
:1027180080B584B000AF384A3B461268114619802C
:102728000233120C1A701023FB711123BB710022A3
:102738004FF40071314806F077FDB91D4FF0FF33B3
:1027480001222F480AF0BAF839464FF0FF33032226
:102758002B480AF0AFFA01224FF40071274806F01F
:1027680063FD3B785BB2002B14DA3B781B0443F023
:102778007F427B781B021343BA781343FB60FB68E4
:102788005B42002B00DA0F331B11FB60FB685B42D6
:10279800FB600AE03B781A047B781B021343BA7883
:1027A8001343FB60FB681B11FB60FB79002B0CD10A
:1027B800FB6840F6354202FB03F3124A82FB031220
:1027C8009210DB17D31ABB6010E0FB6840F6354265
:1027D80002FB03F30C4A82FB03129211DB17D21A95
:1027E80013469B0013449A001344BB60BB68184609
:1027F8001037BD4680BD00BF200A0108000C0258F2
:102808007003002467666666D34D621080B582B097
:1028180000AF00233B802D237B7100224FF4007111
:10282800114806F001FD791D4FF0FF3301220F48D2
:102838000AF044F839464FF0FF3302220B480AF0F9
:1028480039FA01224FF40071074806F0EDFC3B7895
:102858001B021AB27B781BB213431BB2FB80FB88A6
:1028680018460837BD4680BD000C02587003002486
:1028780080B584B000AF0346FB80154A07F10C030E
:102888001268114619800233120C1A7030233B73F8
:10289800FB881B0A9BB2DBB27B73FB88DBB2BB7382
:1028A80000224FF400710B4806F0BEFC07F10C0142
:1028B8004FF0FF33032208480AF000F801224FF4D2
:1028C8000071044806F0B0FC00BF1037BD4680BD5B
:1028D800200A0108000C02587003002480B584B057
:1028E80000AF0346FB80154A07F10C031268114636
:1028F80019800233120C1A7034233B73FB881B0AAD
:102908009BB2DBB27B73FB88DBB2BB7300224FF454
:1029180000710B4806F088FC07F10C014FF0FF33FB
:102928000322084809F0CAFF01224FF40071044845
:1029380006F07AFC00BF1037BD4680BD200A0108AA
:10294800000C02587003002480B485B000AF034621
:102958003960FB710023FB7338E0FB7BE82202FB44
:1029680003F33A681344122283F8DC20FB7BE82245
:1029780002FB03F33A681344042283F8DD20FB7B4F
:10298800E82202FB03F33A681344092283F8DE20A5
:10299800FB7BE82202FB03F33A681344062283F820
:1029A800DF20FB7BE82202FB03F33A68134404228E
:1029B80083F8E020FB7BE82202FB03F33A68134428
:1029C800022283F8E120FB7B0133FB73FA7BFB795E
:1029D8009A42C2D300BF00BF1437BD465DF8047BDE
:1029E800704780B582B000AF03463960FB71FB7950
:1029F8003968184600F02CFF00BF0837BD4680BD77
:102A080080B582B000AF03463960FB71FB79396845
:102A1800184600F09CFF00BF0837BD4680BD80B552
:102A280084B000AF03463960FB710023FB73FB7968
:102A38003968184601F00BF80346FB7397F90F3015
:102A480018461037BD4680BD80B584B000AF034638
:102A58003960FB710023FB73FB793968184601F074
:102A6800D1F80346FB7397F90F3018461037BD4667
:102A780080BD80B582B000AF0346FB710B46BB71C9
:102A880013467B717A79B979FB79184601F095F983
:102A980000BF0837BD4680BD80B582B000AF034691
:102AA8000A46FB711346BB71BA79FB791146184681
:102AB80001F0AEF900BF0837BD4680BD80B584B0CF
:102AC80000AF03463A60FB710B46BB710023FB73F2
:102AD800B979FB793A68184601F0BFF90346FB73E8
:102AE800FB7B18461037BD4680BD80B584B000AF6B
:102AF80003463A60FB710B46BB710023FB73B9793F
:102B0800FB793A68184601F05CFA97F90F301846D5
:102B18001037BD4680BD80B584B000AF03463A602B
:102B2800FB710B46BB710023FB73B979FB793A68DB
:102B3800184601F0EEFA0346FB7397F90F30184672
:102B48001037BD4680BD80B500AF01F0C5FE034615
:102B5800184680BD80B582B000AF03463960FB716E
:102B6800FB793968184602F09FF800BF0837BD4660
:102B780080BD80B582B000AF03463960FB71FB7938
:102B88003968184602F0F6F800BF0837BD4680BD20
:102B980080B582B000AF396011461A460346FB7112
:102BA8000B46BB7113467B71BA79FB7939681846B5
:102BB80002F00AF97A79FB793968184602F038F98F
:102BC800FB793A693968184602F066F9FB797A693F
:102BD8003968184602F0B0F9FB79BA6939681846BD
:102BE80002F039FABA8BFB793968184602F083FA91
:102BF8003A8CFB793968184602F0C3FA00BF0837E7
:102C0800BD4680BD80B485B000AF03463960FB7116
:102C18000023FB7316E00023BB600DE0FB7BE8227A
:102C280002FB03F33A681A44BB6813440F330022CB
:102C38001A70BB680133BB60BB68052BEEDDFB7BFC
:102C48000133FB73FA7BFB799A42E4D300BF00BFE0
:102C58001437BD465DF8047B704780B582B000AF7D
:102C6800396011461A460346FB710B46BB71134681
:102C78007B71BA79FB793968184600F01CF87A79C3
:102C8800FB793968184600F04AF8FB793A693968DF
:102C9800184600F078F8FB797A693968184600F028
:102CA800C2F8FB79BA693968184600F00AF900BF1A
:102CB8000837BD4680BD80B483B000AF0346396095
:102CC800FB711346BB71BB79002B11D0FB79E8224D
:102CD80002FB03F33A6813441A7CFB79E82101FBF1
:102CE80003F339680B4442F04002D2B21A7410E080
:102CF800FB79E82202FB03F33A6813441A7CFB7958
:102D0800E82101FB03F339680B4422F04002D2B2F8
:102D18001A7400BF0C37BD465DF8047B704780B459
:102D280083B000AF03463960FB711346BB71BB79B2
:102D3800002B11D0FB79E82202FB03F33A68134415
:102D48001A7CFB79E82101FB03F339680B4442F054
:102D58000802D2B21A7410E0FB79E82202FB03F3EE
:102D68003A6813441A7CFB79E82101FB03F33968BC
:102D78000B4422F00802D2B21A7400BF0C37BD46C9
:102D88005DF8047B704780B487B000AF0346B96034
:102D98007A60FB7300237B613BE07B697A681344AC
:102DA8001B78002B18D0FB7BE82202FB03F3BA68E0
:102DB80013441B7C5AB27B690433012101FA03F3E3
:102DC8005BB2134359B2FB7BE82202FB03F3BA68F8
:102DD8001344CAB21A7419E0FB7BE82202FB03F31E
:102DE800BA6813441B7C5AB27B690433012101FA87
:102DF80003F35BB2DB435BB2134059B2FB7BE822BF
:102E080002FB03F3BA681344CAB21A747B6901332C
:102E18007B617B69012BC0DD00BF00BF1C37BD464D
:102E28005DF8047B704780B487B000AF0346B96093
:102E38007A60FB7300237B6139E07B697A6813440D
:102E48001B78002B17D0FB7BE82202FB03F3BA6840
:102E58001344DB7B5AB201217B6901FA03F35BB2AD
:102E6800134359B2FB7BE82202FB03F3BA6813440D
:102E7800CAB2DA7318E0FB7BE82202FB03F3BA68F4
:102E88001344DB7B5AB201217B6901FA03F35BB27D
:102E9800DB435BB2134059B2FB7BE82202FB03F32E
:102EA800BA681344CAB2DA737B6901337B617B6900
:102EB800032BC2DD00BF00BF1C37BD465DF8047B95
:102EC800704780B487B000AF0346B9607A60FB737F
:102ED80000237B61ACE07B69002B28D17B697A6891
:102EE80013441B78002B11D0FB7BE82202FB03F371
:102EF800BA6813441A7CFB7BE82101FB03F3B96829
:102F08000B4442F00402D2B21A7410E0FB7BE822B0
:102F180002FB03F3BA6813441A7CFB7BE82101FB2C
:102F280003F3B9680B4422F00402D2B21A747B6925
:102F3800002B3BDD7B69042B38DC7B697A68134402
:102F48001B78002B18D0FB7BE82202FB03F3BA683E
:102F58001344DB7B5AB27B690333012101FA03F383
:102F68005BB2134359B2FB7BE82202FB03F3BA6856
:102F78001344CAB2DA7319E0FB7BE82202FB03F3BD
:102F8800BA681344DB7B5AB27B690333012101FA27
:102F980003F35BB2DB435BB2134059B2FB7BE8221D
:102FA80002FB03F3BA681344CAB2DA737B69042BD1
:102FB8003BDD7B69062B38DC7B697A6813441B7818
:102FC800002B18D0FB7BE82202FB03F3BA681344FA
:102FD8001B7C5AB27B69053B012101FA03F35BB202
:102FE800134359B2FB7BE82202FB03F3BA6813448C
:102FF800CAB21A7419E0FB7BE82202FB03F3BA6831
:1030080013441B7C5AB27B69053B012101FA03F387
:103018005BB2DB435BB2134059B2FB7BE82202FB95
:1030280003F3BA681344CAB21A747B6901337B612B
:103038007B69062B7FF74FAF00BF00BF1C37BD462B
:103048005DF8047B7047000090B587B006AF012398
:1030580030491846FFF78DFD01232E491846FFF722
:10306800D1FD2D4B18782D4B19782D4B1C782D4BF5
:103078001B882D4A1288049203932C4B02932C4BE5
:1030880001932C4B009323460A462249FFF780FD03
:10309800214B1878284B1A78284B1B78284902911D
:1030A80028490191284900911A49FFF7D6FD0123C3
:1030B80018491846FFF74EFD012316491846FFF731
:1030C80043FC0123184600F0E8F90123114918468A
:1030D800FFF787FC01230F491846FFF791FC0123EE
:1030E800184600F0BDF901230A491846FFF797FC76
:1030F80003461A46154B1A70012306491846FFF76E
:10310800A3FC03461A46114B1A7000BF0437BD468C
:1031180090BD00BF380200242003002400000024D2
:103128003203002402000024040000241C000024B0
:103138000800002434030024400300242000002455
:10314800140000243C030024440300242103002429
:1031580080B584B000AF0346FB710123184600F028
:103168009CF90223002100221846FFF782FCFFF792
:10317800EAFC0123184600F073F901230D4A1946A9
:103188000020FFF79BFC03465AB20B4B1A700B4BFF
:103198001B781846FB790749742200FB02F2134496
:1031A8000C335B000B44DB88FB81FB891846103726
:1031B800BD4680BD380200242103002420030024DA
:1031C80080B584B000AF0346FB710123184600F0B8
:1031D80064F902224C4B1B7819461046FFF75CFC39
:1031E800FFF7B1FC494B1B780121494A1846FFF704
:1031F8007CFC03461A46474B1A70464B93F900303D
:10320800002B6CD1444B1B781846FB79404974223B
:1032180000FB02F21344243331F813301A463F4BB3
:103228001A603E4B1B6807EE903AB8EEE76B9FEDCD
:10323800305B85EE067BB7EE006B37EE466B9FED95
:103248002E5B85EE067BF7EEC77B354BC3ED007A28
:10325800334BD3ED007AB7EEE77AB0EE470B0DF0BB
:103268008FFAB0EE407BF7EEC77BC7ED037AD7ED58
:10327800037A9FED2C7A67EE877A9FED2B7A37EEEB
:10328800877AD7ED037ADFED296A67EEA66AD7ED6C
:10329800037A66EEA76AD7ED037A66EEA77A77EE29
:1032A800277AB7EEE76AB7EE005B85EE067B9FEDFF
:1032B800146B37EE467BF7EEC77B1D4BC3ED007AE8
:1032C8001B4BD3ED007AB2EE047A67EE877AFDEEF7
:1032D800E77A17EE903A7B81B7F90A3001E040F2BD
:1032E8004D1318461037BD4680BD00BFAFF30080B0
:1032F80000000000C0FFDF40000000000088C3405D
:103308006666666666127140300300243103002445
:10331800380200242103002420030024240300246D
:103328002C0300244A2C84399F22873ADF63F73024
:103338002803002480B584B000AF0023FB810A2055
:1033480004F006FF0123184600F0A7F80223002125
:1033580000221846FFF78DFB0A2004F0F9FE01232E
:10336800184600F09AF8384B1B780121374A18465E
:10337800FFF7A4FB0123354A19460020FFF7CBFBD2
:10338800FFF7C6F903465B42314A82FB031252112A
:10339800DB17D21A13469B0013441A01D31A2D4A7D
:1033A80082FB03125211DB17D31A7B80B7F9023064
:1033B800002BB8BF5B429BB2092B03D9FB8943F0B2
:1033C8000103FB810023BB6017E0BB68DBB2184632
:1033D800FFF7BEFE03461A461F4BA3FB0223DB087A
:1033E8009BB21A461D4B5B689A4203DBFB8943F08C
:1033F8000203FB81BB680133BB60BB680F2BE4DDB4
:1034080000237B6017E07B68DBB21846FFF7A0FE5D
:1034180003461A46104BA3FB0223DB089BB21A464D
:103428000E4B9B689A4203DCFB8943F00403FB8143
:103438007B6801337B607B680F2BE4DDB7F90E30C6
:1034480018461037BD4680BD3103002438020024D9
:10345800D34D62101F85EB51CDCCCCCC98090024FC
:1034680080B584B000AF0346FB710023FB600BE01E
:103478000A2002F0CDFBFF2002F059FC0A2002F0DE
:10348800D7FBFB680133FB60FB79FA689A42EFDBF4
:1034980000BF00BF1037BD4680BD80B584B000AF07
:1034A8000346FB710023FB600FE00A2002F0B0FB2B
:1034B8004FF4967002F0CCFB0A2002F0B9FB0A2008
:1034C80002F0C6FBFB680133FB60FB79FA689A429D
:1034D800EBDB00BF00BF1037BD4680BD80B584B0B0
:1034E80000AF78607B681B783B727B685B787B7287
:1034F80007F108031946022000F076F90346FB811C
:10350800FB891B0A9BB2DBB2BB72FB89DBB2FB7285
:103518000A2002F07DFB07F108031946042002F097
:10352800B3FB0A2002F084FB00BF1037BD4680BD04
:1035380080B588B000AF0346B9607A60FB73062394
:103548003B77FB7BDB00DBB20433FB76FB7E184664
:103558000CF0CAFF03467B61BB681A787B691A7056
:103568007B690133BA6852781A707969022000F0D1
:103578003BF903467B827B8A1B0A9AB27B6902333A
:10358800D2B21A707B6903337A8AD2B21A700423D2
:10359800FB77FB7BBB7742E000237B7716E0BB7FA2
:1035A8005A1E13465B0013445B001A467B7F134484
:1035B8001A467B681A44FB7F79690B4412781A70A3
:1035C800FB7F0133FB777B7F01337B777A7F3B7F00
:1035D8009A42E4D3BB7F5A1E13465B0013445B0038
:1035E8001A467B681A443B7F1146184600F0FCF8DF
:1035F80003463B823B8A1B0A99B2FB7F7A691344D4
:10360800CAB21A70FB7F01337A6913443A8AD2B27C
:103618001A70FB7F0233FB77BB7F013BBB77BB7F15
:10362800002BB9D10A2002F0F3FAFB7E796918461B
:1036380002F02AFB0A2002F0FBFA78690CF05CFF22
:1036480000BF2037BD4680BD80B5C8B000AF07F5C4
:103658009073A3F58C73196007F59073A3F58E73B7
:103668001A6007F59073A3F2111302461A70082323
:1036780087F81C31002387F81F3107F59073A3F5ED
:103688008C731B681B7887F8103107F59073A3F5C6
:103698008C731B685B7887F8113107F588731946B6
:1036A800022000F0A1F80346A7F81A31B7F81A313A
:1036B8001B0A9BB2DBB287F81231B7F81A31DBB2BA
:1036C80087F813310A2002F0A3FA07F59073A3F2E2
:1036D800111397F81C211B7812FB03F3DBB207F1D7
:1036E800100207F58870042102F0EBFA0A2002F0B4
:1036F8009FFA002387F81E3166E0002387F81D3102
:1037080020E097F81D2197F81E3197F81C1101FB4E
:1037180003F31A4497F81E31D90097F81D310B446A
:10372800194607F59073A3F58E731B680B4407F5CC
:103738009071A1F588718A5C1A7097F81D31013370
:1037480087F81D3197F81D2197F81C319A42D8D374
:1037580097F81E31DB00063307F59072A2F58E72DA
:10376800126813441B789BB21B029AB297F81E3159
:10377800DB00073307F59071A1F58E7109680B44DA
:103788001B789BB21344A7F8183197F81E31DB0059
:103798001A4607F59073A3F58E731B6813441946F0
:1037A800062000F021F80346A7F81631B7F81821CB
:1037B800B7F816319A4202D0FF2387F81F3197F8DD
:1037C8001E31013387F81E3107F59073A3F21113E8
:1037D80097F81E211B789A428FD397F91F31184604
:1037E80007F59077BD4680BD80B485B000AF03462D
:1037F8003960FB711023FB8100237B7319E0FB897F
:10380800DB099AB27B7B39680B441B789BB2534027
:103818009BB2DBB27B81FB891B021AB27B890B4905
:1038280031F813301BB253401BB2FB817B7B013351
:103838007B737A7BFB799A42E1D3FB895B009BB26D
:1038480018461437BD465DF8047B7047240A010802
:1038580080B5C4B000AF024607F58873A3F5887336
:10386800196007F58873A3F209131A704FF480736F
:10387800A7F80831002387F80F31002387F80E31A5
:10388800002387F80D3148E007F58873A3F588739E
:103898001B6893F8BF3083F00103DBB2002B04D020
:1038A80097F80D3187F80E310BE007F58873A3F20E
:1038B80009131A7897F80D31D31ADBB2013B87F850
:1038C8000E31002387F80C311EE097F80E31E822FC
:1038D80002FB03F307F58872A2F588721268D11803
:1038E80097F80C2197F80F31895C07F58872A2F5D3
:1038F8008472D15497F80F31013387F80F3197F854
:103908000C31013387F80C3197F80C31052BDCD9D1
:1039180097F80D31013387F80D3107F58873A3F255
:10392800091397F80D211B789A42ADD307F10802C5
:1039380007F5847107F58873A3F209131B781846F5
:10394800FFF7F6FD00BF07F58877BD4680BD80B557
:10395800C4B000AF024607F58873A3F588731960F1
:1039680007F58873A3F209131A704FF41053A7F8D8
:103978000831002387F80F31002387F80E31002320
:1039880087F80D3149E007F58873A3F588731B683C
:1039980093F8BF3083F00103DBB2002B04D097F813
:1039A8000D3187F80E310BE007F58873A3F2091380
:1039B8001A7897F80D31D31ADBB2013B87F80E312C
:1039C800002387F80C311FE097F80E31E82202FB3C
:1039D80003F307F58872A2F588721268D11897F870
:1039E8000C2197F80F310A44D17B07F58872A2F5AC
:1039F8008472D15497F80F31013387F80F3197F853
:103A08000C31013387F80C3197F80C31052BDBD9D1
:103A180097F80D31013387F80D3107F58873A3F254
:103A2800091397F80D211B789A42ACD307F10802C5
:103A380007F5847107F58873A3F209131B781846F4
:103A4800FFF776FD00BF07F58877BD4680BD80B5D6
:103A5800C6B000AF024607F58C73A3F58C731960E6
:103A680007F58C73A3F211131A704FF40073A7F8BB
:103A78000831002387F80F31002387F8173107F141
:103A8800080207F5847107F58C73A3F211131B78EC
:103A98001846FFF7D9FD034687F80F31002387F84A
:103AA800163191E007F58C73A3F58C731B6893F8B6
:103AB800BF3083F00103DBB2002B04D097F8163136
:103AC80087F817310BE007F58C73A3F211131A78F6
:103AD80097F81631D31ADBB2013B87F81731002368
:103AE800C7F8103120E097F81631DA00D7F810310E
:103AF800134497F81721E82101FB02F207F58C71AE
:103B0800A1F58C7109680A4407F58C71A1F58871D3
:103B1800C95CD7F81031134406330A461A70D7F82F
:103B280010310133C7F81031D7F81031072BDADD1F
:103B380097F81631DB0007F10802134419460620EE
:103B4800FFF752FE0346A7F80C3197F81631DB0051
:103B5800073307F58C72A2F58872D35C1AB297F80E
:103B68001631DB00063307F58C71A1F58871CB5C43
:103B78001B021BB213431BB2A7F80A31B7F80C217A
:103B8800B7F80A319A420DD097F81731E82202FBAC
:103B980003F307F58C72A2F58C72126813440122A4
:103BA8009A730CE097F81731E82202FB03F307F544
:103BB8008C72A2F58C721268134400229A7397F8DB
:103BC8001631013387F8163107F58C73A3F21113F8
:103BD80097F816211B789A42FFF464AF07F58C73A7
:103BE800A3F58C7307F58C72A2F2111210781A687B
:103BF800002100F0B5FE97F90F31184607F58C77CC
:103C0800BD4680BD80B5C6B000AF024607F58C73CF
:103C1800A3F58C73196007F58C73A3F211131A704E
:103C28004FF41853A7F80831002387F80F31002301
:103C380087F8173107F1080207F5847107F58C73C7
:103C4800A3F211131B781846FFF7FEFC034687F80A
:103C58000F31002387F8163191E007F58C73A3F52F
:103C68008C731B6893F8BF3083F00103DBB2002B21
:103C780004D097F8163187F817310BE007F58C73E5
:103C8800A3F211131A7897F81631D31ADBB2013B55
:103C980087F817310023C7F8103120E097F816315C
:103CA800DA00D7F81031134497F81721E82101FBFF
:103CB80002F207F58C71A1F58C7109680A4407F5C1
:103CC8008C71A1F58871C95CD7F81031134415338C
:103CD8000A461A70D7F810310133C7F81031D7F8EF
:103CE8001031072BDADD97F81631DB0007F10802EF
:103CF800134419460620FFF777FD0346A7F80C3151
:103D080097F81631DB00073307F58C72A2F5887235
:103D1800D35C1AB297F81631DB00063307F58C71BD
:103D2800A1F58871CB5C1B021BB213431BB2A7F829
:103D38000A31B7F80C21B7F80A319A420DD097F832
:103D48001731E82202FB03F307F58C72A2F58C7297
:103D58001268134401225A770CE097F81731E822C9
:103D680002FB03F307F58C72A2F58C7212681344F8
:103D780000225A7797F81631013387F8163107F57C
:103D88008C73A3F2111397F816211B789A42FFF44B
:103D980064AF07F58C73A3F58C7307F58C72A2F2E8
:103DA800111210781A68042100F0DAFD97F90F3122
:103DB800184607F58C77BD4680BD80B584B000AF46
:103DC8000346FB710B46BB7113467B71FB795B1095
:103DD800DBB203F00103FB73FB7B0233DBB23B7303
:103DE800FB79DB01FB73BB791B01DAB2FB7B134464
:103DF800DAB27B791344DBB26033DBB27B7307F151
:103E08000C031846FFF76AFB00BF1037BD4680BD9C
:103E180080B584B000AF03460A46FB711346BB71F8
:103E2800FB795B10DBB203F00103FB73FB7B04330C
:103E3800DBB23B72FB79DB01FB73FA7BBB79134482
:103E4800DBB26033DBB27B7207F108031846FFF779
:103E580045FB00BF1037BD4680BDB0B588B002AF86
:103E680003463A60FB710B46BB710023FB750023C8
:103E7800BB75BB79DB0018460CF036FB0346BB600C
:103E8800FB79002B4BD101237B7541E0B9797B7D10
:103E9800BA68184600F0BBFB00233B6131E03B6881
:103EA80093F8BF3083F00103DBB2002B02D03B69EB
:103EB800BB7506E03B69DBB2BA79D31ADBB2013BCA
:103EC800BB753B69D8B2BB7DE82202FB03F33A68B5
:103ED800134403F11E04BB7DE82202FB03F33A6896
:103EE80013444233797D00932346BA6800F083FC7B
:103EF8000346DAB2FB7D1344DBB2FB753B69013341
:103F08003B61BB793A699A42C9DB7B7D01337B759A
:103F18003B6893F8DF307A7D9A42B7D943E0B979A4
:103F2800FB79BA68184600F072FB0023FB6036E0A4
:103F38003B6893F8BF3083F00103DBB2002B02D05B
:103F4800FB68BB7506E0FB68DBB2BA79D31ADBB253
:103F5800013BBB75FB68D8B2BB7DDB001A46BB686A
:103F68009C18BB7DE82202FB03F33A68134403F173
:103F78001E05BB7DE82202FB03F33A681344423373
:103F8800F97900932B46224600F035FC0346DAB255
:103F9800FB7D1344DBB2FB75FB680133FB60BB7927
:103FA800FA689A42C4DBBB793A680121184600F0E6
:103FB800D7FCB8680CF0A0FAFB7D18461837BD4648
:103FC800B0BD90B589B002AF03463A60FB710B46AD
:103FD800BB710023FB750023BB75BB79DB0018465A
:103FE8000CF082FA0346BB60FB79002B47D1012312
:103FF8007B753DE0B9797B7DBA68184600F065FBB2
:1040080000233B612DE03B6893F8BF3083F0010348
:10401800DBB2002B02D03B69BB7506E03B69DBB223
:10402800BA79D31ADBB2013BBB753B69D8B2BB7D09
:10403800E82202FB03F33A68134403F14804BB7D0A
:10404800E82202FB03F33A6813445A33797D00935C
:104058002346BA6800F0CFFB0346FB753B69013382
:104068003B61BB793A699A42CDDB7B7D01337B7535
:104078003B6893F8E0307A7D9A42BBD93AE0B97947
:10408800FB79BA68184600F020FB0023FB602DE09E
:104098003B6893F8BF3083F00103DBB2002B02D0FA
:1040A800FB68BB7506E0FB68DBB2BA79D31ADBB2F2
:1040B800013BBB75FB68D8B2BB7DE82202FB03F36A
:1040C8003A68134403F14804BB7DE82202FB03F37A
:1040D8003A6813445A33F97900932346BA6800F0D2
:1040E8008AFB0346FB75FB680133FB60BB79FA6802
:1040F8009A42CDDBBB793A680221184600F030FCC1
:10410800B8680CF0F9F997F9173018461C37BD460E
:1041180090BD80B58AB000AF03463A60FB710B468C
:10412800BB710623BB7603237B76002387F82730F1
:10413800002387F82630002387F82530BA791346FC
:104148005B0013449B0018460CF0CEF903467B61D4
:10415800FB79002B40F03D81012387F8243032E1C0
:10416800002387F82730B97997F824307A691846F8
:1041780000F0FEFA002387F8233019E13B6893F832
:10418800BF3083F00103DBB2002B04D097F8233053
:1041980087F8253007E0BA7997F82330D31ADBB2CD
:1041A800013B87F8253097F82430012B32D10023C2
:1041B80087F8223028E097F827307A6913441B786B
:1041C8009AB297F82730013379690B441B789BB270
:1041D8001B029BB213447B8297F82530E82202FB2E
:1041E80003F33A681A4497F822302C335B001344DF
:1041F8007A8ADA8097F82730023387F8273097F8D9
:104208002230013387F8223097F822207B7E9A42A9
:10421800D1D381E097F82430022B7DD197F827304D
:104228007A6913441B789AB297F827300133796971
:104238000B441B789BB21B029BB213447B8297F8FA
:104248002730023387F8273097F82530E82202FB19
:1042580003F33A6813447A8AA3F8642097F827305E
:104268005A1C87F827201A467B691A4497F8253084
:10427800E82101FB03F339680B44127883F86620C0
:1042880097F827305A1C87F827201A467B691A4462
:1042980097F82530E82101FB03F339680B441278BD
:1042A80083F8672097F827305A1C87F827201A4682
:1042B8007B691A4497F82530E82101FB03F3396834
:1042C8000B44127883F8682097F827307A691344EA
:1042D8001B785B10DAB297F82530E82101FB03F36D
:1042E80039680B4402F00102D2B283F8692097F8CA
:1042F80027305A1C87F827201A467B6913441A78F6
:1043080097F82530E82101FB03F339680B4402F0E4
:104318000102D2B283F86A2097F827307A691344E9
:104328001B789BB21B029AB297F827300133796940
:104338000B441B789BB213443B8297F82330DB0075
:104348001A467B691A44BB7E11461846FFF74CFA99
:104358000346FB813A8AFB899A4211D0FF2387F8EA
:10436800263097F82530E82202FB03F33A681A440E
:1043780097F82430013B1344012283F86B200DE0A9
:1043880097F82530E82202FB03F33A681A4497F8B5
:104398002430013B1344002283F86B2097F8273020
:1043A800023387F8273097F82330013387F8233012
:1043B80097F82320BB799A42FFF4E0AE97F82430AF
:1043C800013387F8243097F82430022B7FF6C8AEE3
:1043D8000EE1B979FB797A69184600F0C9F900232A
:1043E800FB6100E13B6893F8BF3083F00103DBB267
:1043F800002B03D0FB6987F8253007E0FB69DBB2A7
:10440800BA79D31ADBB2013B87F82530FB79012B47
:104418002DD10023FB7625E097F827307A691344DD
:104428001B789AB297F82730013379690B441B78C7
:104438009BB21B029BB213447B8297F82530E8227B
:1044480002FB03F33A681A44FB7E2C335B001344E7
:104458007A8ADA8097F82730023387F82730FB7E8C
:104468000133FB76FA7E7B7E9A42D5D382E0FB79D4
:10447800022B7FD197F827305A1C87F827201A4635
:104488007B6913441B789AB297F82730591C87F830
:10449800271019467B690B441B789BB21B029BB201
:1044A80013447B8297F82530E82202FB03F33A682D
:1044B80013447A8AA3F8642097F827305A1C87F89F
:1044C80027201A467B691A4497F82530E82101FB12
:1044D80003F339680B44127883F8662097F827307D
:1044E8005A1C87F827201A467B691A4497F8253002
:1044F800E82101FB03F339680B44127883F867203D
:1045080097F827305A1C87F827201A467B691A44DF
:1045180097F82530E82101FB03F339680B4412783A
:1045280083F8682097F827307A6913441B785B1062
:10453800DAB297F82530E82101FB03F339680B4418
:1045480002F00102D2B283F8692097F827305A1C8A
:1045580087F827201A467B6913441A7897F825307C
:10456800E82101FB03F339680B4402F00102D2B2DF
:1045780083F86A2097F827307A6913441B789BB22E
:104588001B029AB297F82730013379690B441B78DC
:104598009BB213443B82FB69DB001A467B691A44D1
:1045A800BB7E11461846FFF71FF90346FB813A8A7E
:1045B800FB899A420FD0FF2387F8263097F82530D9
:1045C800E82202FB03F33A681A44FB79013B1344DF
:1045D800012283F86B2097F82730023387F82730B9
:1045E800FB690133FB61BB79FA699A42FFF6FAAEBF
:1045F800BB793A680321184600F0B2F978690BF0E4
:104608007BFF97F9263018462837BD4680BD80B510
:1046180084B000AF03463A60FB710B46BB710823B8
:10462800FB73FB79012B04D104237B7200233B72BB
:1046380026E0FB79022B04D106237B7200233B7210
:104648001EE0FB79032B04D108237B7200233B7205
:1046580016E0FB79042B04D10A237B7200233B72FA
:104668000EE0FB79052B04D109237B7200233B72F2
:1046780006E0FB79062B03D10B237B7200233B72E8
:1046880007F1080319460220FFF7AEF80346BB817D
:10469800BB891B0A9BB2DBB2BB72BB89DBB2FB7264
:1046A8000A2001F0B5FAFA7BBB7912FB03F3DBB2FF
:1046B80007F108003A68042101F003FB0A2001F021
:1046C800B7FA00BF1037BD4680BD80B584B000AFD3
:1046D80003463A60FB710B46BB710823FB73FB79F9
:1046E800012B04D10C237B7200233B721BE0FB7966
:1046F800022B04D10E237B7200233B7213E0FB795B
:10470800032B04D10D237B7200233B720BE0FB7952
:10471800042B04D10F237B7200233B7203E00C238C
:104728007B7200233B7207F1080319460220FFF74A
:104738005BF80346BB81BB891B0A9BB2DBB2BB7229
:10474800BB89DBB2FB720A2001F062FAFA7BBB7903
:1047580012FB03F3DBB207F108003A68042101F009
:10476800B0FA0A2001F064FA00BF1037BD4680BDD8
:1047780080B584B000AF03463A60FB710B46BB714D
:104788000823FB73FB79012B04D110237B720023D0
:104798003B720BE0FB79022B04D112237B720023BE
:1047A8003B7203E010237B7200233B7207F108037E
:1047B80019460220FFF718F80346BB81BB891B0A7C
:1047C8009BB2DBB2BB72BB89DBB2FB720A2001F081
:1047D8001FFAFA7BBB7912FB03F3DBB207F108007F
:1047E8003A68042101F06DFA0A2001F021FA00BFAD
:1047F8001037BD4680BD80B588B000AFBA607B6019
:104808000346FB730B46BB7306233B770323FB76F8
:104818000023FB77FB7BDB00BB7700237B7720E063
:10482800BB7FBA6813441B789AB2BB7F0133B9685F
:104838000B441B789BB21B029BB21344BB827A7F4A
:10484800BB7B013BF97E01FB03F313445B007A68F1
:104858001344BA8A1A80BB7F0233BB777B7F01334C
:104868007B777A7FFB7E9A42DAD3BB7FBA681344A0
:104878001B781B021AB2BB7F0133B9680B441B7843
:104888001BB213431BB23B83FB7BDB001A46BB689E
:104898001A443B7F11461846FEF7A6FF0346FB82E3
:1048A8003A8BFB8A9A4208D00123FB77BB7B013BFA
:1048B800BA6A134401221A7005E0BB7B013BBA6A4D
:1048C800134400221A70BB7F0233BB7797F91F305D
:1048D80018462037BD4680BD80B584B000AF0023A0
:1048E800FB600023FB720023BB7207233B71142378
:1048F8007B713B1D19460220FEF776FF03463B817C
:104908003B891B0A9BB2DBB2BB713B89DBB2FB71F3
:104918000A2001F07DF93B1D1946042001F0B4F985
:104928000DE0FF2001F003FA0346BB72BB7A002BAF
:1049380002D00123FB7202E0FB680A33FB60FB68CC
:10494800064A934202D8FB7A002BEAD00A2001F0EB
:104958006FF9FB6818461037BD4680BD3F0D030050
:1049680080B48BB000AF03463A60FB710B46BB7155
:10497800BB79042B00F2918101A252F823F000BF09
:104988009D490008994A00084B4B0008F74B00085E
:104998001B4A000800237B6236E07B6AE82202FBA0
:1049A80003F33A681344B3F8C0107B6AE82202FBA9
:1049B80003F33A6813449B7B9AB27B6AE82000FBB6
:1049C80003F3386803440A4492B2A3F8C0207B6A10
:1049D800E82202FB03F33A681344B3F8C2107B6A77
:1049E800E82202FB03F33A6813449B7B9AB27B6A82
:1049F800E82000FB03F3386803440A4492B2A3F8A2
:104A0800C2207B6A01337B62FB797A6A9A42C4DBF3
:104A180044E100233B6236E03B6AE82202FB03F3F1
:104A28003A681344B3F8C0103B6AE82202FB03F368
:104A38003A6813445B7F9AB23B6AE82000FB03F3B1
:104A4800386803440A4492B2A3F8C0203B6AE822BB
:104A580002FB03F33A681344B3F8C2103B6AE82236
:104A680002FB03F33A6813445B7F9AB23B6AE8207F
:104A780000FB03F3386803440A4492B2A3F8C22047
:104A88003B6A01333B62FB793A6A9A42C4DB05E12F
:104A98000023FB6150E00023BB6143E0FB69E8228F
:104AA80002FB03F33A681344B3F8C010FB69E82229
:104AB80002FB03F33A681A44BB69134442331B7878
:104AC8009AB2FB69E82000FB03F3386803440A4400
:104AD80092B2A3F8C020FB69E82202FB03F33A680C
:104AE8001A44BB6960335B0013449988FB69E82268
:104AF80002FB03F33A681A44BB69134442331B7838
:104B08009BB2FA69E82000FB02F2386802440B44C1
:104B180099B2BB6960335B0013440A469A80BB694B
:104B28000133BB613B6893F8DF301A46BB69934297
:104B3800B4DBFB690133FB61FB79FA699A42AADBB2
:104B4800ACE000237B614DE000233B6140E07B69E2
:104B5800E82202FB03F33A681344B3F8C0107B69F8
:104B6800E82202FB03F33A681A443B6913445A33B8
:104B78001B789AB27B69E82000FB03F3386803448A
:104B88000A4492B2A3F8C0207B69E82202FB03F32F
:104B98003A6813443A69683233F812107B69E8229C
:104BA80002FB03F33A681A443B6913445A331B78EF
:104BB8009AB27B69E82000FB03F3386803440A448F
:104BC80091B23A69683223F812103B6901333B61AC
:104BD8003B6893F8E0301A463B699342B7DB7B6940
:104BE80001337B61FB797A699A42ADDB56E0002399
:104BF800FB604DE00023BB6040E0FB68E82202FB5D
:104C080003F33A681344B3F8C010FB68E82202FBC8
:104C180003F33A681A44BB6813446B331B789AB29F
:104C2800FB68E82000FB03F3386803440A4492B2A7
:104C3800A3F8C020FB68E82202FB03F33A68134498
:104C4800BA686C3233F81210FB68E82202FB03F3EF
:104C58003A681A44BB6813446B331B789AB2FB68F2
:104C6800E82000FB03F3386803440A4491B2BA68A9
:104C78006C3223F81210BB680133BB603B6893F8B1
:104C8800E130013BBA689A42B7DBFB680133FB604D
:104C9800FB79FA689A42ADDB00E000BF00BF2C3711
:104CA800BD465DF8047B704780B487B000AF03460B
:104CB8003960FB7100237B6151E07B69E82202FBCC
:104CC80003F33A6813440022A3F8C0207B69E82262
:104CD80002FB03F33A6813440022A3F8C22000231E
:104CE8003B610EE07B69E82202FB03F33A681A4451
:104CF8003B6960335B00134400229A803B690133AF
:104D08003B613B69052BEDDD0023FB600DE07B6912
:104D1800E82202FB03F33A681344FA686832002178
:104D280023F81210FB680133FB60FB68032BEEDDF0
:104D38000023BB600DE07B69E82202FB03F33A68BD
:104D48001344BA686C32002123F81210BB6801338F
:104D5800BB60BB68012BEEDD7B6901337B61FB79AE
:104D68007A699A42A9DB00BF00BF1C37BD465DF8CF
:104D7800047B704780B485B000AF03463960FB718F
:104D88000023FB7315E00023BB600CE0FB7BE822EB
:104D980002FB03F33A681A44BB68134400221A70F2
:104DA800BB680133BB60BB68052BEFDDFB7B0133C0
:104DB800FB73FA7BFB799A42E5D300BF00BF143737
:104DC800BD465DF8047B704780B483B000AF0346EE
:104DD8003960FB711346BB71BB79002B11D0FB798D
:104DE800E82202FB03F33A6813441A78FB79E821B6
:104DF80001FB03F339680B4442F00402D2B21A7083
:104E080010E0FB79E82202FB03F33A6813441A78AE
:104E1800FB79E82101FB03F339680B4422F0040213
:104E2800D2B21A7000BF0C37BD465DF8047B7047DC
:104E380080B483B000AF03463960FB711346BB7181
:104E4800BB79002B11D0FB79E82202FB03F33A6807
:104E580013441A78FB79E82101FB03F339680B4402
:104E680042F00102D2B21A7010E0FB79E82202FB8C
:104E780003F33A6813441A78FB79E82101FB03F33A
:104E880039680B4422F00102D2B21A7000BF0C3705
:104E9800BD465DF8047B704780B487B000AF034619
:104EA800B9607A60FB7300237B613BE07B697A68B9
:104EB80013441B78002B18D0FB7BE82202FB03F37A
:104EC800BA6813441B785AB27B690333012101FA8B
:104ED80003F35BB2134359B2FB7BE82202FB03F3F3
:104EE800BA681344CAB21A7019E0FB7BE82202FBC5
:104EF80003F3BA6813441B785AB27B690333012160
:104F080001FA03F35BB2DB435BB2134059B2FB7B9C
:104F1800E82202FB03F3BA681344CAB21A707B6929
:104F280001337B617B69042BC0DD00BF00BF1C37E8
:104F3800BD465DF8047B704780B487B000AF034678
:104F4800B9607A60FB7300237B6139E07B697A681A
:104F580013441B78002B17D0FB7BE82202FB03F3DA
:104F6800BA6813441B795AB201217B6901FA03F329
:104F78005BB2134359B2FB7BE82202FB03F3BA6826
:104F88001344CAB21A7118E0FB7BE82202FB03F350
:104F9800BA6813441B795AB201217B6901FA03F3F9
:104FA8005BB2DB435BB2134059B2FB7BE82202FBE6
:104FB80003F3BA681344CAB21A717B6901337B617F
:104FC8007B69072BC2DD00233B613AE03B6908336C
:104FD8007A6813441B78002B17D0FB7BE82202FB6E
:104FE80003F3BA6813445B795AB201213B6901FAA9
:104FF80003F35BB2134359B2FB7BE82202FB03F3D2
:10500800BA681344CAB25A7118E0FB7BE82202FB63
:1050180003F3BA6813445B795AB201213B6901FA78
:1050280003F35BB2DB435BB2134059B2FB7BE8226C
:1050380002FB03F3BA681344CAB25A713B690133DD
:105048003B613B69032BC1DD00BF00BF1C37BD4678
:105058005DF8047B704780B487B000AF0346B96041
:105068007A60FB7300237B613BE07B697A681344B9
:105078001B78002B18D0FB7BE82202FB03F3BA68ED
:1050880013445B795AB27B690433012101FA03F3B3
:105098005BB2134359B2FB7BE82202FB03F3BA6805
:1050A8001344CAB25A7119E0FB7BE82202FB03F3EE
:1050B800BA6813445B795AB27B690433012101FA57
:1050C80003F35BB2DB435BB2134059B2FB7BE822CC
:1050D80002FB03F3BA681344CAB25A717B690133FD
:1050E8007B617B69032BC0DD00BF00BF1C37BD4659
:1050F8005DF8047B704780B485B000AF0346396023
:10510800FB711346BB80BB881B099BB2013BFB812B
:10511800FB79E82202FB03F33A681344FA89D2B216
:105128005A70FB79E82202FB03F33A6813449A7831
:10513800FB79E82101FB03F339680B4422F00F02E5
:10514800D2B29A70FB79E82202FB03F33A6813445F
:105158009B785AB2FB891B0A9BB25BB203F00F0320
:105168005BB2134359B2FB79E82202FB03F33A68B6
:105178001344CAB29A7000BF1437BD465DF8047B69
:10518800704780B485B000AF03463960FB711346A1
:10519800BB80BB881B09FB81FB891B0999B2FB7982
:1051A800E82202FB03F33A681344CAB2DA70FB79C7
:1051B800E82202FB03F33A6813449A78FB79E82162
:1051C80001FB03F339680B4402F00F02D2B29A7064
:1051D800FB79E82202FB03F33A6813449B785AB23E
:1051E800FB891B015BB2134359B2FB79E82202FB2E
:1051F80003F33A681344CAB29A7000BF1437BD4625
:105208005DF8047B7047000080B584B000AF0346AA
:10521800FB71FB79FB7307F10F014FF0FF3301229C
:10522800034807F04BFB00BF1037BD4680BD00BFE9
:105238008004002480B586B002AF0346FB710023CA
:105248003B73FB79FB7207F10C0207F10B014FF07E
:10525800FF3300930123044807F0BCFE97F90C3094
:1052680018461037BD4680BD8004002480B582B042
:1052780000AF786001224FF40061054803F0D4FFC5
:10528800044A7B68136000BF0837BD4680BD00BF75
:10529800001002584803002480B584B000AF78603D
:1052A8000B467B8013463B8002E0012002F050FF52
:1052B800274B1B6893F88130DBB2012BF5D100F046
:1052C80021FA02233B727B881B0A9BB2DBB27B72FA
:1052D8007B88DBB2BB7200224FF400711D4803F0DB
:1052E800A3FF07F108030321184600F07BFA002307
:1052F800BB7311E0164B18683A886423796807F085
:10530800DDFA0346FB73FB7B022B09D1052002F073
:105318001FFFBB7B0133BB73BB7B042BEAD900E0C7
:1053280000BF01224FF400710A4803F07DFF00F02E
:1053380021FA012002F00CFF00F000FAFB7B012BA0
:1053480001D1022300E0012318461037BD4680BD75
:10535800480300240010025880B584B000AF03460B
:105368003960FB800023FB603B68DBB23B733B6822
:105378001B12DBB27B733B681B14DBB2BB733B684D
:105388001B0EDBB2FB73F98807F10C0304221846E5
:1053980000F07CF800BF1037BD4680BD80B584B0F2
:1053A80000AF78600B467B8013463B800023FB6090
:1053B80011E0FB689BB29B009AB27B88134498B2B9
:1053C800FB689B007A6813441B681946FFF7C4FF03
:1053D800FB680133FB603B88FA689A42E9DB00BF4F
:1053E80000BF1037BD4680BD80B588B000AF03460A
:1053F800FB800023FB60F98807F10C0304221846A0
:1054080000F03AF93B7BFB617B7BBB61BB7B7B613B
:10541800FB7B3B61FB69DAB2BB691B029BB21A4496
:105428007B691B0423F07F4313441A463B691B0620
:10543800134418462037BD4680BD000080B584B0AF
:1054480000AF03460A46FB801346BB800023FB607F
:1054580011E0FB689BB29B009AB2FB8813449BB295
:105468001846FFF7C1FF02460749FB6841F82320A9
:10547800FB680133FB60BB88FA689A42E9DB00BF2E
:1054880000BF1037BD4680BD8408002480B586B0B3
:1054980000AF78600B467B8013463B800023FB827D
:1054A80000237B8200233B820023FB810023BB81F6
:1054B80000237B8100237B757B8803F01F033B82DD
:1054C8003B8AC3F12003FB813B885B09FB823B8855
:1054D80003F01F037B823B8A002B3CD1FB8A002B05
:1054E80024D13B887B817A897B8819467868FFF7C5
:1054F800D3FE03467B757B7D012B00F0B7807B7D57
:10550800B5E020237B817A897B8819467868FFF784
:10551800C3FE03467B757B7D012B01D07B7DA6E016
:105528007B8820337B807B6820337B60FB8A5A1E14
:10553800FA82002BE5D17B8A7B817A897B881946A0
:105548007868FFF7A9FE03467B757B7D012B00F089
:105558008D807B7D8BE0FB8A002B38D17A8AFB8992
:105568009A4225D97A8AFB89D31ABB81FB897B8128
:105578007A897B8819467868FFF78EFE03467B7523
:105588007B7D012B01D07B7D71E07A88FB891344F8
:105598007B80FB897A6813447B60BB897B817A892D
:1055A8007B8819467868FFF777FE03467B7509E024
:1055B8003B887B817A897B8819467868FFF76CFE7F
:1055C80003467B757B7D012B50D07B7D4FE03A886D
:1055D800FB89D31A3B803B885B09FB823B8803F03D
:1055E8001F037B82FB897B817A897B8819467868CF
:1055F800FFF752FE03467B757B7D012B01D07B7D37
:1056080035E07A88FB8913447B80FB897A681344E8
:105618007B6014E020237B817A897B88194678682F
:10562800FFF73AFE03467B757B7D012B01D07B7D1E
:105638001DE07B8820337B807B6820337B60FB8A7E
:105648005A1EFA82002BE5D17B8A002B0ED07B8A6A
:105658007B817A897B8819467868FFF71DFE0346A7
:105668007B757B7D012B01D07B7D00E001231846F3
:105678001837BD4680BD000080B584B000AF7860A3
:105688000B467B8013463B8002E0012002F060FD60
:105698001A4B1B6893F88130DBB2012BF5D1032339
:1056A8003B737B881B0A9BB2DBB27B737B88DBB2C4
:1056B800BB7300224FF40071114803F0B5FD07F1E8
:1056C8000C030321184600F08DF802E0012002F0D7
:1056D8003FFD0A4B18683A88C823796807F0EAFA48
:1056E8000346022BF2D001224FF40071044803F064
:1056F8009BFD012318461037BD4680BD4803002492
:105708000010025880B582B000AF00224FF400713B
:10571800094803F089FD06233B713B1D012118460A
:1057280000F060F801224FF40071034803F07CFD9B
:1057380000BF0837BD4680BD0010025880B582B052
:1057480000AF00224FF40071094803F06DFD0423F7
:105758003B713B1D0121184600F044F801224FF42B
:105768000071034803F060FD00BF0837BD4680BDE7
:105778000010025880B582B000AF00233B710523AA
:105788003B7000224FF40071144803F04DFD3B4676
:105798000121184600F026F802E0012002F0D8FCAA
:1057A8000F4B1868391DC823012207F083FA0346F6
:1057B800022BF2D0012002F0CBFC3B7903F001036D
:1057C800002BEDD101224FF40071044803F02CFDA9
:1057D800002318460837BD4680BD00BF0010025898
:1057E8004803002480B582B000AF78600B46FB7098
:1057F80002E0012002F0ACFC0B4B1B6893F88130EF
:10580800DBB2002BF5D0084B1868FB789AB2C82396
:10581800796807F053F80346002B01D001F01CFA11
:1058280000BF0837BD4680BD4803002480B5C6B018
:1058380000AF07F58C73A3F58A7318464FF48A7383
:105848001A4600210AF00CFF07F58C73A3F58A733A
:1058580001221A6007F58C73A3F58A734FF461620D
:105868005A6007F58C73A3F58A7340F6B8329A60CC
:1058780007F58C73A3F58A7340F24D12DA6007F5C9
:105888008C73A3F58A73FD221A6107F58C73A3F54F
:105898008A7301225A6107F58C73A3F58A734BF258
:1058A800B0329A6107F58C73A3F58A7348F6A04263
:1058B800DA6107F58C73A3F58A730B221A6207F570
:1058C8008C73A3F58A7301225A6207F58C73A3F5CA
:1058D8008A7340F6D8629A6207F58C73A3F58A73C7
:1058E8004FF46162DA6207F58C73A3F58A7340F6A8
:1058F800B8321A6307F58C73A3F58A734FF42F62D5
:105908005A6307F58C73A3F58A7341F25C229A6394
:1059180007F58C73A3F58A7341F29412DA6307F5DD
:105928008C73A3F58A7349F288021A6407F58C739D
:10593800A3F58A7348F6B8025A6407F58C73A3F581
:105948008A7340F243129A6407F58C73A3F58A733D
:1059580040F23912DA6407F58C73A3F58A730022D2
:105968001A6507F58C73A3F58A736FF013025A65ED
:1059780007F58C73A3F58A7332229A6507F58C7341
:10598800A3F58A732D22DA6507F58C73A3F58A735C
:1059980000221A6607F58C73A3F58A736FF0130259
:1059A8005A6607F58C73A3F58A7332229A6607F54F
:1059B8008C73A3F58A730022DA6607F58C73A3F556
:1059C8008A733C221A6707F58C73A3F58A7332220F
:1059D8005A6707F58C73A3F58A736FF013029A67F9
:1059E80007F58C73A3F58A730022DA6707F58C73C1
:1059F800A3F58A730022C3F8802007F58C73A3F5FA
:105A08008A731922C3F8842007F58C73A3F58A7367
:105A18003222C3F8882007F58C73A3F58A73002215
:105A2800C3F88C2007F58C73A3F58A733222C3F868
:105A3800902007F58C73A3F58A732822C3F8942065
:105A480007F58C73A3F58A730022C3F8982007F52D
:105A58008C73A3F58A736FF01302C3F89C2007F5C3
:105A68008C73A3F58A730222C3F8A02007F58C7300
:105A7800A3F58A730022C3F8A42007F58C73A3F555
:105A88008A730222C3F8A82007F58C73A3F58A73DA
:105A98004FF47A72C3F8AC2007F58C73A3F58A73B8
:105AA8000022C3F8B02007F58C73A3F58A7300228F
:105AB800C3F8B42007F58C73A3F58A730022C3F8E2
:105AC800B82007F58C73A3F58A730022C3F8BC20AD
